:020000040800F2
:100000000000022051020008A1020008A10200081D
:10001000A1020008A1020008A102000800000000DF
:10002000000000000000000000000000A102000825
:10003000A102000800000000A1020008A1020008BF
:10004000A1020008A1020008A1020008A102000804
:10005000A1020008A1020008A1020008A1020008F4
:10006000A1020008A1020008A1020008A1020008E4
:10007000A1020008A1020008A1020008A1020008D4
:10008000A1020008A1020008A1020008000000006F
:10009000000000000000000000000000A1020008B5
:1000A000A1020008A1020008A1020008A1020008A4
:1000B000A1020008A1020008A1020008A102000894
:1000C000A1020008A1020008A1020008A102000884
:1000D000A1020008A1020008A1020008000000001F
:1000E000A1020008A1020008A1020008000000000F
:1000F000000000000000000000000000A102000855
:1001000000000000A1020008A1020008A1020008EE
:1001100000000000000000000000000000000000DF
:10012000A1020008A1020008A1020008A102000823
:10013000A102000800000000000000000000000014
:10014000000000000000000000000000A102000804
:10015000A1020008A1020008A1020008A1020008F3
:10016000A1020008A1020008000000000000000039
:10017000000000000000000000000000000000007F
:1001800000000000A10200080000000000000000C4
:08019000A1020008A102000811
:1001980010B5054C237833B9044B13B10448AFF3B9
:1001A80000800123237010BD000000200000000023
:1001B800EC02000808B5034B1BB103490348AFF331
:1001C800008008BD0000000004000020EC020008C8
:1001D80080B586B000AF00233B610E4B3B613B69A5
:1001E8001B68FB600C4B3B613B691B68BB600023D1
:1001F8007B61FA68BB689A4202D9084B7B6101E0CF
:10020800074B7B617B691B6843F001037B607B685C
:100218009847FEE700400008008000088440000876
:100228008480000880B400AF064BD3F88830054AB4
:1002380043F47003C2F8883000BFBD465DF8047B04
:10024800704700BF00ED00E0DFF834D00D480E49DC
:100258000E4A002302E0D458C4500433C4188C4218
:10026800F9D30B4A0B4C002301E013600432A2427D
:10027800FBD3FFF7D7FF00F011F8FFF7A9FF70478E
:100288000000022000000020000000200C030008ED
:10029800000000201C000020FEE7000070B50D4D96
:1002A8000D4C641BA4100026A64209D10B4D0C4C22
:1002B80000F018F8641BA4100026A64205D170BDF2
:1002C80055F8043B98470136EEE755F8043B984744
:1002D8000136F2E7040300080403000804030008D9
:1002E80008030008F8B500BFF8BC08BC9E46704774
:0C02F800F8B500BFF8BC08BC9E4670477B
:04030400BD0100082F
:04030800990100084F
:04000005080002519C
:00000001FF
