:020000040800F2
:1000000000000220D1030008590300085F03000824
:10001000650300086B03000871030008000000007E
:10002000000000000000000000000000770300084E
:10003000850300080000000093030008A1030008E6
:1000400021040008210400082104000821040008FC
:1000500021040008210400082104000821040008EC
:1000600021040008210400082104000821040008DC
:1000700021040008210400082104000821040008CC
:1000800021040008210400082104000800000000E9
:100090000000000000000000000000002104000833
:1000A000210400082104000821040008210400089C
:1000B000210400082104000821040008210400088C
:1000C000210400082104000821040008210400087C
:1000D0002104000821040008210400080000000099
:1000E0002104000821040008210400080000000089
:1000F00000000000000000000000000021040008D3
:100100000000000021040008210400082104000868
:1001100000000000000000000000000000000000DF
:10012000210400082104000821040008210400081B
:100130002104000800000000000000000000000092
:100140000000000000000000000000002104000882
:1001500021040008210400082104000821040008EB
:100160002104000821040008000000000000000035
:10017000000000000000000000000000000000007F
:100180000000000021040008000000000000000042
:0801900021040008210400080D
:1001980010B5054C237833B9044B13B10448AFF3B9
:1001A80000800123237010BD04000020000000001F
:1001B8009404000808B5034B1BB103490348AFF387
:1001C800008008BD0000000008000020940400081A
:1001D80080B487B000AF344B7B61344B3B61344B08
:1001E800FB607B691B6843F480327B691A6000BF3F
:1001F8007B691B685B0C03F00103002BF8D07B695B
:100208001B6823F080727B691A6000BF7B691B68DA
:100218005B0E03F00103002BF8D13B691B6843F028
:1002280008023B691A603B691B6843F448523B6902
:100238001A603B691A683B691A603B691B6843F49A
:1002480080023B691A603B691B6843F0A0623B6906
:100258001A607B691B6843F080727B691A60FB68CF
:100268001B6843F48052FB681A60124BBB60BB6882
:100278001B6843F00302BB681A600223FB71FB682A
:100288001A68FB791A43FB681A6000BFFB681A6892
:10029800FB791A40FB799A42F8D100BF00BF1C379E
:1002A800BD465DF8047B70470038024004380240C0
:1002B80008380240003C024080B483B000AF0D4BC8
:1002C8007B607B681B6843F008027B681A600A4BF6
:1002D8001B68094A43F080731360084B1B68074A80
:1002E80023F48053136000BF0C37BD465DF8047BD0
:1002F800704700BF30380240000C0240040C024036
:1003080080B483B000AF0346FB71FB79002B06D0A5
:10031800094B1B68084A43F48053136005E0064BF9
:100328001B68054A23F48053136000BF0C37BD4691
:100338005DF8047B704700BF140C024080B500AF25
:10034800FFF746FFFFF7B8FF0020FFF7D9FFFEE7EA
:1003580080B400AFFEE780B400AFFEE780B400AF22
:10036800FEE780B400AFFEE780B400AFFEE780B4DC
:1003780000AF00BFBD465DF8047B704780B400AF96
:1003880000BFBD465DF8047B704780B400AF00BF76
:10039800BD465DF8047B704780B500AF00F03EF8BD
:1003A80000BF80BD80B400AF064BD3F88830054A43
:1003B80043F47003C2F8883000BFBD465DF8047B83
:1003C800704700BF00ED00E0DFF834D00D480E495B
:1003D8000E4A002302E0D458C4500433C4188C4297
:1003E800F9D30B4A0B4C002301E013600432A242FC
:1003F800FBD3FFF7D7FF00F025F8FFF79FFF704703
:10040800000002200000002004000020B4040008BE
:100418000400002024000020FEE7000080B400AFA4
:10042800064B1B781A46064B1B681344044A136094
:1004380000BFBD465DF8047B704700BF0000002088
:100448002000002070B50D4D0D4C641BA410002633
:10045800A64209D10B4D0C4C00F018F8641BA410EF
:100468000026A64205D170BD55F8043B98470136D1
:10047800EEE755F8043B98470136F2E7AC0400086C
:10048800AC040008AC040008B0040008F8B500BFCC
:10049800F8BC08BC9E467047F8B500BFF8BC08BC5D
:0404A8009E467047B5
:0404AC00BD01000886
:0404B00099010008A6
:0404B4000100000043
:04000005080003D11B
:00000001FF
