:020000040800F2
:1000000000000220F503000845040008450400082C
:1000100045040008450400084504000800000000ED
:10002000000000000000000000000000450400087F
:10003000450400080000000045040008990100087C
:10004000450400084504000845040008450400086C
:10005000450400084504000845040008450400085C
:10006000450400084504000845040008450400084C
:10007000450400084504000845040008450400083C
:10008000450400084504000845040008000000007D
:10009000000000000000000000000000450400080F
:1000A000450400084504000845040008450400080C
:1000B00045040008450400084504000845040008FC
:1000C00045040008450400084504000845040008EC
:1000D000450400084504000845040008000000002D
:1000E000450400084504000845040008000000001D
:1000F00000000000000000000000000045040008AF
:1001000000000000450400084504000845040008FC
:1001100000000000000000000000000000000000DF
:10012000450400084504000845040008450400088B
:10013000450400080000000000000000000000006E
:10014000000000000000000000000000450400085E
:10015000450400084504000845040008450400085B
:1001600045040008450400080000000000000000ED
:10017000000000000000000000000000000000007F
:10018000000000004504000800000000000000001E
:080190004504000845040008C5
:1001980080B400AF044B1B680133034A136000BFEF
:1001A800BD4680BC704700BF0400002080B483B007
:1001B80000AF094B7B60094B3B603B6843F67F62AD
:1001C8001A607B681B6843F007027B681A6000BFEF
:1001D8000C37BD4680BC704710E000E014E000E03A
:1001E80080B400AF00BFBD4680BC704780B487B004
:1001F80000AF334B7B61334B3B61334BFB607B6917
:100208001B6843F480327B691A6000BF7B691B68F6
:1002180003F40033002BF9D07B691B6823F080724C
:100228007B691A6000BF7B691B6803F00073002BB1
:10023800F9D13B691B6843F008023B691A603B69C6
:100248001B6843F448523B691A603B691A683B696A
:100258001A603B691B6843F480023B691A603B697A
:100268001B6843F0A0623B691A607B691B6843F016
:1002780080727B691A60FB681B6843F48052FB68D4
:100288001A60124BBB60BB681B6843F00302BB6873
:100298001A600223FB71FB681A68FB791A43FB6832
:1002A8001A6000BFFB681A68FB791A40FB799A420A
:1002B800F8D100BF00BF1C37BD4680BC704700BFE7
:1002C800003802400438024008380240003C02402E
:1002D80080B483B000AF0C4B7B607B681B6843F035
:1002E80008027B681A60094B1B68084A43F0807350
:1002F8001360074B1B68064A23F48053136000BF42
:100308000C37BD4680BC704730380240000C0240B4
:10031800040C024080B483B000AF0346FB71FB7944
:10032800002B06D0084B1B68074A43F48053136020
:1003380005E0054B1B68044A23F48053136000BF93
:100348000C37BD4680BC7047140C024080B500AF26
:10035800FFF74CFFFFF7BCFF0020FFF7DBFFFEE7CE
:100368000348044B834202D0034B03B1184770473C
:100378000400002004000020000000000548064B8F
:100388001B1AD90F01EBA301491002D0034B03B18B
:1003980018477047040000200400002000000000F7
:1003A80010B5064C237843B9FFF7DAFF044B13B1B5
:1003B8000448AFF300800123237010BD080000201B
:1003C800000000006805000808B5054B1BB1054989
:1003D8000548AFF30080BDE80840FFF7CFBF00BF76
:1003E800000000000C00002068050008DFF834D089
:1003F8000D480E490E4A002302E0D458C450043375
:10040800C4188C42F9D30B4A0B4C002301E013604B
:100418000432A242FBD3FFF7E3FE00F011F8FFF726
:1004280095FF704700000220000000200400002013
:100438008C05000804000020BC010020FEE7000035
:1004480070B50F4B0F4DAB42A3EB050607D0B610A6
:10045800002455F8043B01349847A642F9D800F027
:100468007FF8094D094B5E1BAB424FEAA60606D042
:10047800002455F8043B01349847A642F9D870BDCA
:100488008005000880050008800500088805000828
:10049800704700BF704700BF024B13B1024800F01D
:1004A80005B8704700000000C10400080023014699
:1004B8001A46184600F014B838B5074D074C2C1BDF
:1004C800A41005D0013C55F8043D9847002CF9D1FB
:1004D800BDE8384000F04AB88C05000888050008D7
:1004E8002DE9F8431B4D0646286898460F46914665
:1004F800FFF7CEFF184B1C681CB3286865681F2DD2
:1005080022DC4EB96B1C0235636044F82570FFF796
:10051800C1FF0020BDE8F88304EB85010123C1F881
:100528008890D4F88821AB401A43022EC4F8882159
:10053800C1F80881E6D1D4F88C211A43C4F88C217B
:10054800E0E7064C1C60D8E7FFF7A4FF4FF0FF3048
:10055800E0E700BF00000020280000202C00002059
:10056800F8B500BFF8BC08BC9E467047F8B500BF98
:08057800F8BC08BC9E46704768
:08058000A1040008D1030008EA
:04058800A9030008BB
:04058C002400002027
:04000005080003F5F7
:00000001FF
