:020000040800F2
:044000000A000000B2
:1040800000000220B543000805440008054400086C
:10409000054400080544000805440008000000002D
:1040A00000000000000000000000000005440008BF
:1040B00005440008000000000544000859420008BB
:1040C00005440008054400080544000805440008AC
:1040D000054400080544000805440008054400089C
:1040E000054400080544000805440008054400088C
:1040F000054400080544000805440008054400087C
:1041000005440008054400080544000800000000BC
:10411000000000000000000000000000054400084E
:10412000054400080544000805440008054400084B
:10413000054400080544000805440008054400083B
:10414000054400080544000805440008054400082B
:10415000054400080544000805440008000000006C
:10416000054400080544000805440008000000005C
:1041700000000000000000000000000005440008EE
:10418000000000000544000805440008054400083C
:10419000000000000000000000000000000000001F
:1041A00005440008054400080544000805440008CB
:1041B00005440008000000000000000000000000AE
:1041C000000000000000000000000000054400089E
:1041D000054400080544000805440008054400089B
:1041E000054400080544000800000000000000002D
:1041F00000000000000000000000000000000000BF
:10420000000000000544000800000000000000005D
:08421000054400080544000804
:1042180010B5054C237833B9044B13B10448AFF3F8
:1042280000800123237010BD000000200000000062
:104238005044000808B5034B1BB103490348AFF3CA
:10424800008008BD00000000040000205044000861
:1042580080B400AF044B1B680133034A136000BFEE
:10426800BD465DF8047B70471C00002080B483B015
:1042780000AF0A4B7B600A4B3B603B6843F67F62AA
:104288001A607B681B6843F007027B681A6000BFEE
:104298000C37BD465DF8047B704700BF10E000E0B6
:1042A80014E000E080B483B000AF7860074B0022D0
:1042B8001A6000BF054B1B687A689A42FAD800BF9B
:1042C80000BF0C37BD465DF8047B70471C0000201A
:1042D80080B483B000AF00237B60124B1B6B114A84
:1042E80043F0080313630F4B1B6B03F008037B6059
:1042F8007B680D4B1B680C4A23F07F4313600A4B05
:104308001B68094A43F0AA431360084B1B68074A15
:1043180023F47043136000BF0C37BD465DF8047B7F
:10432800704700BF00380240000C0240040C0240F5
:1043380080B582B000AF104B7B607B680F4A1A6073
:10434800FFF794FFFFF7C4FF0D4B1B683B600D4B55
:104358001B680C4A43F4004313604FF4FA70FFF7EC
:10436800A1FF084B1B68074A23F4004313604FF46E
:10437800FA70FFF797FFEAE708ED00E080400008D1
:1043880000400008140C024080B400AF064BD3F87C
:104398008830054A43F47003C2F8883000BFBD4630
:1043A8005DF8047B704700BF00ED00E0DFF834D013
:1043B8000D480E490E4A002302E0D458C450043375
:1043C800C4188C42F9D30B4A0B4C002301E013604C
:1043D8000432A242FBD3FFF7D7FF00F011F8FFF732
:1043E800A7FF704700000220000000200000002006
:1043F800704400080000002020000020FEE70000B4
:1044080070B50D4D0D4C641BA4100026A64209D1B1
:104418000B4D0C4C00F018F8641BA4100026A642A3
:1044280005D170BD55F8043B98470136EEE755F8BD
:10443800043B98470136F2E76844000868440008DE
:10444800684400086C440008F8B500BFF8BC08BC14
:104458009E467047F8B500BFF8BC08BC9E4670473A
:044468003D420008C9
:04446C0019420008E9
:04000005080043B5F7
:00000001FF
